:100000000C942A000C9447000C9447000C94470071
:100010000C9447000C9447000C9447000C94470044
:100020000C9447000C9447000C9447000C94470034
:100030000C9447000C9447000C9447000C94470024
:100040000C9447000C9447000C9447000C94470014
:100050000C94470011241FBECFE5D8E0DEBFCDBF12
:1000600010E0A0E6B0E0E6E1F7E202C005900D92F4
:10007000A03CB107D9F710E0A0ECB0E001C01D92A0
:10008000A83CB107E1F70E94EB110C9489130C9482
:100090000000EF92FF920F931F937B018C0120E0F1
:1000A00030E040E05FE40E94490388238CF0C801FF
:1000B000B70120E030E040E05FE40E94C1010E940F
:1000C000A9039B01AC01205030404040504806C07D
:1000D000C801B7010E94A9039B01AC01B901CA0183
:1000E0001F910F91FF90EF900895A0E0B0E0EBE733
:1000F000F0E00C944B13DC012B01FA019C9192303F
:1001000008F439C1EB018881823008F433C194309E
:1001100069F4843009F02FC111969C91119789815F
:10012000981709F428C1A7EAB0E025C1843009F482
:1001300021C18230A9F4923009F01DC19A01AD01AC
:1001400088E0EA010990AE01E90109929E0181501F
:10015000C1F7E201898111969C918923818308C1AD
:10016000923009F407C112962D903C901397EB0141
:100170008A819B811496AD90BD90CD90DC901797AD
:10018000EC80FD800E811F819101281B390BB90184
:1001900037FF04C066277727621B730B6032710537
:1001A0000CF061C0121613066CF537014801062EDB
:1001B00004C096948794779467940A94D2F721E0C8
:1001C00030E040E050E004C0220F331F441F551FB1
:1001D0006A95D2F721503040404050402E213F21B7
:1001E00040235123211531054105510521F021E01E
:1001F00030E040E050E079018A01E628F72808293C
:1002000019293CC0232BD1F1260E371E350146019A
:10021000062E04C096948794779467940A94D2F734
:1002200021E030E040E050E004C0220F331F441FC3
:10023000551F6A95D2F721503040404050402A2146
:100240003B214C215D21211531054105510521F04E
:1002500021E030E040E050E059016A01A628B728CB
:10026000C828D9280BC0821593052CF01C01AA249C
:10027000BB24650103C0EE24FF24870111969C91E5
:10028000D20111968C91981709F445C0992339F041
:10029000A80197012A193B094C095D0906C0A6016E
:1002A00095012E193F09400B510B57FD08C01182D3
:1002B0003382228224833583468357831DC081E0A5
:1002C00081833382228288279927DC01821B930B4A
:1002D000A40BB50B84839583A683B7830DC0220F2F
:1002E000331F441F551F24833583468357838281E0
:1002F000938101979383828324813581468157813D
:10030000DA01C9010197A109B1098F5F9F4FAF4F72
:10031000BF4328F30BC0918333822282EA0CFB1C7B
:100320000C1D1D1DE482F5820683178383E0808304
:10033000248135814681578157FF1AC0C901AA27F8
:1003400097FDA095BA2F81709070A070B0705695EF
:10035000479537952795822B932BA42BB52B848318
:100360009583A683B7838281938101969383828349
:10037000DF0101C0D201CD01CDB7DEB7E2E10C94BF
:100380006713A0E2B0E0E7ECF1E00C945713698347
:100390007A838B839C832D833E834F835887E9E048
:1003A000EE2EF12CEC0EFD1ECE010196B7010E943F
:1003B000D2048E010F5E1F4FCE010596B8010E9438
:1003C000D2048A8991E089278A8BC701B801AE01DE
:1003D000475E5F4F0E9475000E94FD03A096E6E015
:1003E0000C947313A0E2B0E0E8EFF1E00C94571323
:1003F00069837A838B839C832D833E834F835887C5
:10040000F9E0EF2EF12CEC0EFD1ECE010196B701A6
:100410000E94D2048E010F5E1F4FCE010596B801D7
:100420000E94D204C701B801AE01475E5F4F0E942F
:1004300075000E94FD03A096E6E00C947313A0E201
:10044000B0E0E5E2F2E00C944B1369837A838B838E
:100450009C832D833E834F835887CE010196BE0136
:10046000675F7F4F0E94D204CE010596BE016F5E8A
:100470007F4F0E94D2049985923088F0898982301A
:10048000C8F0943019F4823051F404C0843029F457
:10049000923081F487EA90E0C6C0923049F420E0BF
:1004A0009A858A89981321E02A87CE010996BBC0D4
:1004B000823049F420E09A858A89981321E02A8BBA
:1004C000CE014196B0C02D843E844F8458886D88FB
:1004D0007E888F88988CEE24FF248701AA24BB2471
:1004E000650140E050E060E070E0E0E0F0E0C10174
:1004F00081709070892BE9F0E60CF71C081D191D1E
:100500009A01AB012A0D3B1D4C1D5D1D80E090E062
:10051000A0E0B0E0E614F7040805190520F481E036
:1005200090E0A0E0B0E0BA01A901480F591F6A1F8E
:100530007B1FAA0CBB1CCC1CDD1C97FE08C081E0F5
:1005400090E0A0E0B0E0A82AB92ACA2ADB2A3196B6
:10055000E032F10549F0660C771C881C991C569412
:10056000479437942794C3CFFA85EA892B893C892D
:100570008B859C85280F391F2E5F3F4F17C0CA01FE
:1005800081709070892B61F016950795F794E79428
:1005900080E090E0A0E0B0E8E82AF92A0A2B1B2BC3
:1005A00076956795579547952F5F3F4F77FDE7CF36
:1005B0000CC0440F551F661F771F17FD4160EE0CDE
:1005C000FF1C001F111F21503040403090E05907A0
:1005D00090E0690790E4790760F32B8F3C8FDB0193
:1005E000CA018F779070A070B07080349105A1051A
:1005F000B10561F447FD0AC0E114F10401051105DC
:1006000029F0405C5F4F6F4F7F4F40781A8EFE1786
:1006100011F081E08A8F4D8F5E8F6F8F78A383E01A
:10062000898FCE0149960E94FD03A096E2E10C94C9
:100630006713A8E1B0E0EFE1F3E00C94571369838E
:100640007A838B839C832D833E834F83588789E0F5
:10065000E82EF12CEC0EFD1ECE010196B7010E9492
:10066000D2048E010F5E1F4FCE010596B8010E9485
:10067000D2048985823040F08989823028F0C70110
:10068000B8010E944A0501C08FEF6896E6E00C941D
:100690007313A8E1B0E0EFE4F3E00C94571369831F
:1006A0007A838B839C832D833E834F83588789E095
:1006B000E82EF12CEC0EFD1ECE010196B7010E9432
:1006C000D2048E010F5E1F4FCE010596B8010E9425
:1006D000D2048985823040F08989823028F0C701B0
:1006E000B8010E944A0501C08FEF6896E6E00C94BD
:1006F0007313A8E1B0E0EFE7F3E00C9457136983BC
:100700007A838B839C832D833E834F83588789E034
:10071000E82EF12CEC0EFD1ECE010196B7010E94D1
:10072000D2048E010F5E1F4FCE010596B8010E94C4
:10073000D2048985823040F08989823028F0C7014F
:10074000B8010E944A0501C081E06896E6E00C9479
:100750007313ACE0B0E0EFEAF3E00C945B13698351
:100760007A838B839C83CE010196BE016B5F7F4FA2
:100770000E94D2048D81823061F1823050F1843048
:1007800021F48E81882351F12EC02F81388537FDC9
:1007900020C06E812F3131051CF06623F9F023C093
:1007A0008EE190E0821B930B29853A854B855C8511
:1007B00004C056954795379527958A95D2F76623B5
:1007C000B1F050954095309521953F4F4F4F5F4F79
:1007D0000EC020E030E040E050E009C02FEF3FEFD6
:1007E0004FEF5FE704C020E030E040E050E8B9019F
:1007F000CA012C96E2E00C947713DF92EF92FF92FD
:100800000F931F93FC01E480F58006811781D1804E
:100810008081823048F480E090E0A0E1B0E0E82AF6
:10082000F92A0A2B1B2BA5C0843009F49FC0823003
:1008300021F4EE24FF24870105C0E114F104010531
:10084000110519F4E0E0F0E096C0628173819FEF3A
:10085000623879070CF05BC022E83FEF261B370BAC
:100860002A3131052CF020E030E040E050E02AC091
:10087000B801A701022E04C0769567955795479554
:100880000A94D2F781E090E0A0E0B0E004C0880FC5
:10089000991FAA1FBB1F2A95D2F70197A109B10979
:1008A0008E219F21A023B1230097A105B10521F03E
:1008B00081E090E0A0E0B0E09A01AB01282B392B59
:1008C0004A2B5B2BDA01C9018F779070A070B07052
:1008D00080349105A105B10539F427FF09C0205CDA
:1008E0003F4F4F4F5F4F04C0215C3F4F4F4F5F4F13
:1008F000E0E0F0E02030A0E03A07A0E04A07A0E402
:100900005A0710F0E1E0F0E079018A0127C0603871
:10091000710564F5FB01E158FF4FD801C7018F77DE
:100920009070A070B07080349105A105B10539F4C4
:10093000E7FE0DC080E490E0A0E0B0E004C08FE3EB
:1009400090E0A0E0B0E0E80EF91E0A1F1B1F17FFA1
:1009500005C016950795F794E794319687E01695AC
:100960000795F794E7948A95D1F705C0EE24FF2404
:100970008701EFEFF0E06E2F679566276795902F60
:100980009F77D794DD24D7948E2F8695492F462BB9
:10099000582F5D29B701CA011F910F91FF90EF9069
:1009A000DF900895FC01DB01408151812281622F9B
:1009B0006F7770E0221F2227221F9381892F880FD3
:1009C000822B282F30E0991F9927991F11969C930D
:1009D000119721153105A9F54115510561057105DD
:1009E00011F482E037C082E89FEF13969C938E93B8
:1009F00012979A01AB0167E0220F331F441F551F66
:100A00006A95D1F783E08C930DC0220F331F441FEA
:100A1000551F12968D919C911397019713969C9355
:100A20008E931297203080E0380780E0480780E4FA
:100A3000580758F314962D933D934D935C93179755
:100A400008952F3F310579F4411551056105710570
:100A500019F484E08C93089564FF03C081E08C93C3
:100A600012C01C9210C02F57304013963C932E9307
:100A7000129783E08C9387E0440F551F661F771F02
:100A80008A95D1F7706414964D935D936D937C9322
:100A9000179708951F93DC01FB019C91923008F495
:100AA00047C08081823008F443C0943051F41196DD
:100AB0001C91843099F58181682F70E0611B710968
:100AC0003FC0843021F0923031F48230B9F181811D
:100AD000882389F12DC011961C9111978230F1F075
:100AE00081811817D9F412962D913C911397828128
:100AF00093818217930794F028173907BCF0149656
:100B00008D919D910D90BC91A02D248135814681C0
:100B10005781281739074A075B0718F4112341F05A
:100B20000AC082179307A407B50740F4112319F0F0
:100B300061E070E005C06FEF7FEF02C060E070E041
:100B4000CB011F910895DF93CF9300D0CDB7DEB7CF
:100B50009A83898389819A810E94A506A0E4B0E0E6
:100B6000E0E4F0E0808180688C93A0E4B0E0E0E411
:100B7000F0E080818F7B8C93ABE2B0E0EBE2F0E0C1
:100B800080818D7F8C93ABE2B0E0EBE2F0E080817E
:100B90008E7F8C93AAE2B0E0EAE2F0E0808180618F
:100BA0008C93AAE2B0E0EAE2F0E0808188608C9366
:100BB000A0E4B0E0E0E4F0E0808182608C93A0E407
:100BC000B0E0E0E4F0E0808184608C93AAE2B0E0E1
:100BD000EAE2F0E080818B7F8C93A0E4B0E0E0E477
:100BE000F0E08081877F8C93A0E4B0E0E0E4F0E067
:100BF000808180628C93A0E4B0E0E0E4F0E080814A
:100C000080618C930F900F90CF91DF910895DF93C7
:100C1000CF9300D0CDB7DEB78A831982EBE2F0E044
:100C20008081829586958770882F90E08170907082
:100C30000097A1F3ECE2F0E08A81808381E0898370
:100C400089810F900F90CF91DF910895DF93CF931B
:100C500000D000D0CDB7DEB79B838A8319828A810A
:100C60009B81009769F489818C8316C0EA81FB819E
:100C700080810E9407068A819B8101969B838A83DB
:100C8000EA81FB818081882389F780E00E94070642
:100C900081E0898389818C838C810F900F900F90E4
:100CA0000F90CF91DF910895DF93CF9300D000D0C4
:100CB000CDB7DEB79B838A8319828A819B81009797
:100CC00019F489818C830FC0EBE2F0E080818823E6
:100CD000DCF7ECE2F0E08081EA81FB81808381E057
:100CE000898389818C838C810F900F900F900F9056
:100CF000CF91DF910895DF93CF9300D000D0CDB78F
:100D0000DEB79B838A8319828A819B81009761F475
:100D100089818C8312C08A819B810E9454068A81BA
:100D20009B8101969B838A83EA81FB818081882352
:100D300091F781E0898389818C838C810F900F905A
:100D40000F900F90CF91DF910895DF93CF9300D054
:100D500000D0CDB7DEB79C838B831A8219828B813A
:100D60009C81CC01A0E0B0E0880F991FAA1FBB1F97
:100D7000880F991FAA1FBB1F880F991FAA1FBB1F8F
:100D8000880F991FAA1FBB1F9C01AD0180E092E153
:100D9000AAE7B0E0BC01CD010E940E13DA01C9013F
:100DA00001979A838983A0E4B0E0E0E4F0E08081D9
:100DB0008F778C93E0E4F0E089819A81892F9927DD
:100DC0008083E9E2F0E0898180830F900F900F909B
:100DD0000F90CF91DF910895DF93CF930F92CDB70E
:100DE000DEB71982EAE3F0E080EF8083EBE3F0E026
:100DF00083EC8083E7E3F0E080EF8083E8E3F0E0DA
:100E000083EC8083E4E3F0E080EF8083E5E3F0E0CF
:100E100083EC8083E1E3F0E080EF8083E2E3F0E0C5
:100E200083EC808389810F90CF91DF910895DF93C8
:100E3000CF93CDB7DEB727970FB6F894DEBF0FBEBE
:100E4000CDBF8A836B834C8319828A81843008F0FA
:100E5000DEC08B81883008F0DAC08C81823008F0E7
:100E6000D6C08A81282F30E03F832E838E819F81D8
:100E70008130910509F443C02E813F812230310534
:100E80002CF48E819F81009771F0BCC02E813F8130
:100E90002230310509F45FC08E819F818330910536
:100EA00009F485C0AFC08C818130A1F4AAE3B0E021
:100EB000EAE3F0E08081482F8B81282F30E081E049
:100EC00090E0022E02C0880F991F0A94E2F7842B4B
:100ED0008C9398C0AAE3B0E0EAE3F0E08081482F69
:100EE0008B81282F30E081E090E0022E02C0880F35
:100EF000991F0A94E2F7809584238C9383C08C8198
:100F00008130A1F4A7E3B0E0E7E3F0E08081482F6F
:100F10008B81282F30E081E090E0022E02C0880F04
:100F2000991F0A94E2F7842B8C936CC0A7E3B0E07E
:100F3000E7E3F0E08081482F8B81282F30E081E0CB
:100F400090E0022E02C0880F991F0A94E2F7809564
:100F500084238C9357C08C818130A1F4A4E3B0E04A
:100F6000E4E3F0E08081482F8B81282F30E081E09E
:100F700090E0022E02C0880F991F0A94E2F7842B9A
:100F80008C9340C0A4E3B0E0E4E3F0E08081482F1C
:100F90008B81282F30E081E090E0022E02C0880F84
:100FA000991F0A94E2F7809584238C932BC08C813F
:100FB0008130A1F4A1E3B0E0E1E3F0E08081482FCB
:100FC0008B81282F30E081E090E0022E02C0880F54
:100FD000991F0A94E2F7842B8C9314C0A1E3B0E02C
:100FE000E1E3F0E08081482F8B81282F30E081E021
:100FF00090E0022E02C0880F991F0A94E2F78095B4
:1010000084238C9381E0898399819D8302C0298107
:101010002D838D8127960FB6F894DEBF0FBECDBF0E
:10102000CF91DF910895DF93CF93CDB7DEB72797A8
:101030000FB6F894DEBF0FBECDBF8A836B834C839F
:1010400019828A81843008F0DEC08B81883008F0F4
:10105000DAC08C81823008F0D6C08A81282F30E037
:101060003F832E838E819F818130910509F443C097
:101070002E813F81223031052CF48E819F81009793
:1010800071F0BCC02E813F812230310509F45FC070
:101090008E819F818330910509F485C0AFC08C811A
:1010A0008823A1F0ABE3B0E0EBE3F0E08081482FD0
:1010B0008B81282F30E081E090E0022E02C0880F63
:1010C000991F0A94E2F7842B8C9398C0ABE3B0E0AD
:1010D000EBE3F0E08081482F8B81282F30E081E026
:1010E00090E0022E02C0880F991F0A94E2F78095C3
:1010F00084238C9383C08C818823A1F0A8E3B0E083
:10110000E8E3F0E08081482F8B81282F30E081E0F8
:1011100090E0022E02C0880F991F0A94E2F7842BF8
:101120008C936CC0A8E3B0E0E8E3F0E08081482F46
:101130008B81282F30E081E090E0022E02C0880FE2
:10114000991F0A94E2F7809584238C9357C08C8171
:101150008823A1F0A5E3B0E0E5E3F0E08081482F2B
:101160008B81282F30E081E090E0022E02C0880FB2
:10117000991F0A94E2F7842B8C9340C0A5E3B0E05A
:10118000E5E3F0E08081482F8B81282F30E081E07B
:1011900090E0022E02C0880F991F0A94E2F7809512
:1011A00084238C932BC08C818823A1F0A2E3B0E030
:1011B000E2E3F0E08081482F8B81282F30E081E04E
:1011C00090E0022E02C0880F991F0A94E2F7842B48
:1011D0008C9314C0A2E3B0E0E2E3F0E08081482FFA
:1011E0008B81282F30E081E090E0022E02C0880F32
:1011F000991F0A94E2F7809584238C9381E0898378
:1012000099819D8302C029812D838D8127960FB6F8
:10121000F894DEBF0FBECDBFCF91DF910895DF936D
:10122000CF93CDB7DEB728970FB6F894DEBF0FBEC9
:10123000CDBF8A836B835D834C8319828C819D81B2
:10124000009729F483E08983298128877FC08A81D8
:10125000843008F079C08B81883008F075C08A81AD
:10126000482F50E05F834E838E819F8181309105AE
:1012700059F12E813F812230310534F44E815F8156
:101280004115510569F05BC08E819F8182309105C7
:1012900079F12E813F812330310509F43DC04FC0E3
:1012A000E9E3F0E08081282F30E08B81882F90E007
:1012B000A90102C0559547958A95E2F7CA01817048
:1012C000EC81FD8180833BC0E6E3F0E08081282F44
:1012D00030E08B81882F90E0A90102C05595479599
:1012E0008A95E2F7CA018170EC81FD81808327C075
:1012F000E3E3F0E08081282F30E08B81882F90E0BD
:10130000A90102C0559547958A95E2F7CA018170F7
:10131000EC81FD81808313C0E0E3F0E08081282F21
:1013200030E08B81882F90E0A90102C05595479548
:101330008A95E2F7CA018170EC81FD81808381E0AA
:1013400089835981588702C0898188878885289632
:101350000FB6F894DEBF0FBECDBFCF91DF910895D9
:10136000DF93CF9300D000D000D0CDB7DEB78A8313
:101370006B8319828A81843008F077C08B81883032
:1013800008F073C08A81282F30E03E832D838D8141
:101390009E818130910549F12D813E8122303105B8
:1013A0002CF48D819E81009761F05AC02D813E8181
:1013B0002230310571F18D819E8183309105E9F1F3
:1013C0004FC0ABE3B0E0EBE3F0E08081482F8B81CE
:1013D000282F30E081E090E0022E02C0880F991F94
:1013E0000A94E2F784278C933BC0A8E3B0E0E8E3DB
:1013F000F0E08081482F8B81282F30E081E090E061
:10140000022E02C0880F991F0A94E2F784278C935A
:1014100027C0A5E3B0E0E5E3F0E08081482F8B81B1
:10142000282F30E081E090E0022E02C0880F991F43
:101430000A94E2F784278C9313C0A2E3B0E0E2E3BE
:10144000F0E08081482F8B81282F30E081E090E010
:10145000022E02C0880F991F0A94E2F784278C930A
:1014600081E0898399819C8302C029812C838C81AE
:1014700026960FB6F894DEBF0FBECDBFCF91DF9199
:101480000895DF93CF9300D000D000D0CDB7DEB762
:101490008A836B8319828A81843008F057C08B81DC
:1014A000823008F053C08A81282F30E03E832D839C
:1014B0008D819E818130910509F12D813E812230FF
:1014C00031052CF48D819E81009761F03AC02D8109
:1014D0003E8122303105F1F08D819E81833091056E
:1014E00029F12FC08B81813029F4EAE3F0E08FEFFE
:1014F000808327C0EAE3F0E0108223C08B81813033
:1015000029F4E7E3F0E08FEF80831BC0E7E3F0E02E
:10151000108217C08B81813029F4E4E3F0E08FEF73
:1015200080830FC0E4E3F0E010820BC08B81813038
:1015300029F4E1E3F0E08FEF808303C0E1E3F0E022
:10154000108281E0898399819C8302C029812C8348
:101550008C8126960FB6F894DEBF0FBECDBFCF911B
:10156000DF910895DF93CF9300D000D000D0CDB7A6
:10157000DEB78A836B8319828A81843008F057C072
:101580008B81823008F053C08A81282F30E03E835F
:101590002D838D819E818130910509F12D813E81C0
:1015A000223031052CF48D819E81009761F03AC084
:1015B0002D813E8122303105F1F08D819E81833075
:1015C000910529F12FC08B81882329F0EBE3F0E00E
:1015D0008FEF808327C0EBE3F0E0108223C08B8184
:1015E000882329F0E8E3F0E08FEF80831BC0E8E375
:1015F000F0E0108217C08B81882329F0E5E3F0E04A
:101600008FEF80830FC0E5E3F0E010820BC08B8189
:10161000882329F0E2E3F0E08FEF808303C0E2E368
:10162000F0E0108281E0898399819C8302C0298146
:101630002C838C8126960FB6F894DEBF0FBECDBFEB
:10164000CF91DF910895DF93CF93CDB7DEB7E997C0
:101650000FB6F894DEBF0FBECDBF19AE83E062E0D7
:1016600041E00E94170783E067E041E00E9417070E
:1016700083E063E041E00E94170782E067E041E019
:101680000E94170782E066E041E00E94170782E0AF
:1016900065E041E00E94170782E064E041E00E94BB
:1016A000170780E090E0ACE0B2E48DAB9EABAFAB4F
:1016B000B8AF6DA97EA98FA998AD20E030E04AEFC0
:1016C00054E40E941F02DC01CB0189AB9AABABABA7
:1016D000BCAB69A97AA98BA99CA920E030E040E8BD
:1016E0005FE30E94790388232CF481E090E098ABBB
:1016F0008FA73FC069A97AA98BA99CA920E03FEFD9
:101700004FE757E40E94190318164CF56DA97EA9FE
:101710008FA998AD20E030E040E251E40E941F0222
:10172000DC01CB01BC01CD010E944900DC01CB01F1
:1017300098AB8FA70FC088EC90E09EA78DA78DA5D2
:101740009EA50197F1F79EA78DA78FA598A9019750
:1017500098AB8FA78FA598A9009769F714C069A9BE
:101760007AA98BA99CA90E944900DC01CB0198AB06
:101770008FA78FA598A99CA78BA78BA59CA5019740
:10178000F1F79CA78BA780E20E94C30E80E20E9423
:10179000C30E80E80E94C30E80E090E0A0E8BFE3A3
:1017A0008FA398A7A9A7BAA76FA178A589A59AA57D
:1017B00020E030E04AEF54E40E941F02DC01CB013C
:1017C0008BA39CA3ADA3BEA36BA17CA18DA19EA165
:1017D00020E030E040E85FE30E94790388232CF4A6
:1017E00081E090E09AA389A33FC06BA17CA18DA169
:1017F0009EA120E03FEF4FE757E40E94190318161F
:101800004CF56FA178A589A59AA520E030E040E2CB
:1018100051E40E941F02DC01CB01BC01CD010E94FA
:101820004900DC01CB019AA389A30FC088EC90E0AA
:1018300098A38F8F8F8D98A10197F1F798A38F8F21
:1018400089A19AA101979AA389A389A19AA1009736
:1018500069F714C06BA17CA18DA19EA10E944900D3
:10186000DC01CB019AA389A389A19AA19E8F8D8FB8
:101870008D8D9E8D0197F1F79E8F8D8F80E00E9458
:10188000C30E80EF0E94C30E80E090E0A0E8BFE3AB
:10189000898F9A8FAB8FBC8F698D7A8D8B8D9C8D44
:1018A00020E030E04AEF54E40E941F02DC01CB014B
:1018B0008D8B9E8BAF8BB88F6D897E898F89988D2C
:1018C00020E030E040E85FE30E94790388232CF4B5
:1018D00081E090E09C8B8B8B3FC06D897E898F89E6
:1018E000988D20E03FEF4FE757E40E941903181648
:1018F0004CF5698D7A8D8B8D9C8D20E030E040E237
:1019000051E40E941F02DC01CB01BC01CD010E9409
:101910004900DC01CB019C8B8B8B0FC088EC90E0E5
:101920009A8B898B89899A890197F1F79A8B898B90
:101930008B899C8901979C8B8B8B8B899C890097C9
:1019400069F714C06D897E898F89988D0E9449003E
:10195000DC01CB019C8B8B8B8B899C89988B8F872F
:101960008F8598890197F1F7988B8F8780E00E9487
:10197000C30E81E00E94C30E80E090E0A0E0B0E4DE
:101980008B879C87AD87BE876B857C858D859E8583
:1019900020E030E04AEF54E40E941F02DC01CB015A
:1019A0008F839887A987BA876F81788589859A857B
:1019B00020E030E040E85FE30E94790388232CF4C4
:1019C00081E090E09E838D833FC06F81788589851B
:1019D0009A8520E03FEF4FE757E40E94190318165D
:1019E0004CF56B857C858D859E8520E030E040E25E
:1019F00051E40E941F02DC01CB01BC01CD010E9419
:101A00004900DC01CB019E838D830FC088EC90E000
:101A10009C838B838B819C810197F1F79C838B83C3
:101A20008D819E8101979E838D838D819E810097FC
:101A300069F714C06F81788589859A850E9449006D
:101A4000DC01CB019E838D838D819E819A83898366
:101A500089819A810197F1F79A83898380E00E94B6
:101A6000C30E86E00E94C30E81E08093C00081E037
:101A700089AF89ADE9960FB6F894DEBF0FBECDBF32
:101A8000CF91DF910895DF93CF93CDB7DEB76E97F7
:101A90000FB6F894DEBF0FBECDBF8E8F1D8E8E8D1C
:101AA00082958F70982F917082E064E0492F0E9498
:101AB00013088E8D829586958770982F917082E09D
:101AC00065E0492F0E9413088E8D82958695869534
:101AD0008370982F917082E066E0492F0E9413086E
:101AE0008E8D982F991F9927991F82E067E0492FC3
:101AF0000E94130883E063E041E00E94130880E045
:101B000090E0A0E0B0E4898F9A8FAB8FBC8F698D95
:101B10007A8D8B8D9C8D20E030E04AEF54E40E945A
:101B20001F02DC01CB018D8B9E8BAF8BB88F6D8933
:101B30007E898F89988D20E030E040E85FE30E9445
:101B4000790388232CF481E090E09C8B8B8B3FC041
:101B50006D897E898F89988D20E03FEF4FE757E4AC
:101B60000E94190318164CF5698D7A8D8B8D9C8D0A
:101B700020E030E040E251E40E941F02DC01CB0192
:101B8000BC01CD010E944900DC01CB019C8B8B8BF9
:101B90000FC088EC90E09A8B898B89899A8901978C
:101BA000F1F79A8B898B8B899C8901979C8B8B8B06
:101BB0008B899C89009769F714C06D897E898F890C
:101BC000988D0E944900DC01CB019C8B8B8B8B890B
:101BD0009C89988B8F878F8598890197F1F7988BCF
:101BE0008F8783E063E040E00E9413088091C0008B
:101BF000882309F4A2C08E8D982F917082E064E052
:101C0000492F0E9413088E8D8695982F917082E03F
:101C100065E0492F0E9413088E8D86958695982F32
:101C2000917082E066E0492F0E9413088E8D8695A0
:101C300086958695982F917082E067E0492F0E94E3
:101C4000130883E063E041E00E94130880E090E025
:101C5000A0E0B0E48B879C87AD87BE876B857C85D1
:101C60008D859E8520E030E04AEF54E40E941F02FB
:101C7000DC01CB018F839887A987BA876F8178852C
:101C800089859A8520E030E040E85FE30E9479038F
:101C900088232CF481E090E09E838D833FC06F8188
:101CA000788589859A8520E03FEF4FE757E40E94C9
:101CB000190318164CF56B857C858D859E8520E073
:101CC00030E040E251E40E941F02DC01CB01BC0184
:101CD000CD010E944900DC01CB019E838D830FC0A2
:101CE00088EC90E09C838B838B819C810197F1F73A
:101CF0009C838B838D819E8101979E838D838D81B3
:101D00009E81009769F714C06F81788589859A85CF
:101D10000E944900DC01CB019E838D838D819E81D1
:101D20009A83898389819A810197F1F79A838983BC
:101D300083E063E040E00E94130881E08D8F8D8D89
:101D40006E960FB6F894DEBF0FBECDBFCF91DF9178
:101D50000895DF93CF9300D0CDB7DEB78A83198281
:101D600083E062E041E00E94130883E067E040E026
:101D70000E9413088A810E94430D89810F900F9061
:101D8000CF91DF910895DF93CF9300D0CDB7DEB729
:101D90008A83198283E062E040E00E94130883E0B6
:101DA00067E040E00E9413088A810E94430D81E0B1
:101DB000898389810F900F90CF91DF910895DF93F0
:101DC000CF9300D000D00F92CDB7DEB79C838B832A
:101DD0001A828B819C810097F9F019820FC089814A
:101DE000282F30E08B819C81FC01E20FF31F908152
:101DF00089818F5F8983892F0E94A90E8981282F6D
:101E000030E08B819C81FC01E20FF31F80818823ED
:101E100031F78A818D8304C081E08A838A818D8332
:101E20008D810F900F900F900F900F90CF91DF91B9
:101E30000895DF93CF93CDB7DEB7A0970FB6F89490
:101E4000DEBF0FBECDBF6B8F7C8F8D8F9E8F4F8F70
:101E50001E821D821C821B821A828B8D9C8DAD8DF1
:101E6000BE8DBB2394F48DE20E94A90E8B8D9C8DB8
:101E7000AD8DBE8DB095A095909581959F4FAF4F3C
:101E8000BF4F8B8F9C8FAD8FBE8F8B8D9C8DAD8DFB
:101E9000BE8D0097A105B10509F04BC08D81282F9B
:101EA00030E0CE010796FC01E20FF31F80E3808350
:101EB0008D818F5F8D838D81282F30E0CE01079635
:101EC000FC01E20FF31F10828E8188A37FC08F8DEB
:101ED000282F30E040E050E08B8D9C8DAD8DBE8D85
:101EE000BC01CD010E943013DC01CB018C838D81BC
:101EF000282F30E08C81482F405DCE010796FC01F1
:101F0000E20FF31F40838D818F5F8D838F8D282F8C
:101F100030E040E050E08B8D9C8DAD8DBE8DBC01DE
:101F2000CD010E943013DA01C9018B8F9C8FAD8FD8
:101F3000BE8F8B8D9C8DAD8DBE8D0097A105B1059B
:101F400031F68D81282F30E0CE010796FC01E20F9B
:101F5000F31F10828D8181508A832CC08B81282FA2
:101F600030E0CE010796FC01E20FF31F80818983E8
:101F70008B81482F50E08A81282F30E0CE010796D0
:101F8000FC01E20FF31F2081CE010796FC01E40F54
:101F9000F51F20838A81282F30E0CE010796FC01AF
:101FA000E20FF31F898180838B818F5F8B838A810E
:101FB00081508A839B818A81981780F2CE0107968F
:101FC0000E94DF0E81E08E838E8188A388A1A09677
:101FD0000FB6F894DEBF0FBECDBFCF91DF9108954D
:101FE000DF93CF93CDB7DEB727970FB6F894DEBF58
:101FF0000FBECDBF8B836C831A828B81813118F425
:102000008C81833018F02A812F8323C019828C8120
:10201000282F30E03E832D838D819E818130910574
:1020200031F02D813E812230310521F007C08B81B6
:10203000898305C08B81805C898301C01A82898174
:102040008068898389810E94C30E81E08A833A81F6
:102050003F838F8127960FB6F894DEBF0FBECDBFAA
:10206000CF91DF910895DF93CF93CDB7DEB7279758
:102070000FB6F894DEBF0FBECDBF9D838C836E83F9
:102080001B828C819D81009719F08E81893018F018
:102090008B818F832AC08E81882F90E0880F991FB3
:1020A000880F991F880F991F8A838A8180648A8389
:1020B0008A810E94C30E19820EC08981282F30E0C8
:1020C0008C819D81FC01E20FF31F80810E94A90E8B
:1020D00089818F5F89838981883078F382E00E94CB
:1020E000C30E81E08B838B818F838F8127960FB600
:1020F000F894DEBF0FBECDBFCF91DF910895DF937F
:10210000CF9300D000D0CDB7DEB78A836B834C83EA
:1021100019828C816B810E94F00F8A810E94A90E26
:1021200081E0898389810F900F900F900F90CF915C
:10213000DF910895DF93CF930F92CDB7DEB7198269
:1021400080E060E041E00E94170780E061E041E04C
:102150000E94170780E062E041E00E94170780E0DC
:1021600063E041E00E94170780E060E041E00E94E8
:10217000130880E061E041E00E94130880E062E023
:1021800041E00E94130880E063E041E00E941308F0
:1021900080E064E040E00E94170780E065E040E0F6
:1021A0000E94170780E066E040E00E94170780E089
:1021B00067E040E00E94170780E064E041E00E9491
:1021C000130880E065E041E00E94130880E066E0CB
:1021D00041E00E94130880E067E041E00E9413089C
:1021E00081E0898389810F90CF91DF910895DF93FA
:1021F000CF93CDB7DEB72A970FB6F894DEBF0FBEE8
:10220000CDBF8A8719821A821B821C821D821E8280
:1022100081E08F8382E0888783E08987198236C0D6
:1022200099818A859817C1F48981282F30E0CE01E1
:102230000296FC01E20FF31F40818981282F30E0D4
:10224000CE010696FC01E20FF31F9081842F692FC7
:1022500040E00E94130817C08981282F30E0CE018A
:102260000296FC01E20FF31F40818981282F30E0A4
:10227000CE010696FC01E20FF31F9081842F692F97
:1022800041E00E94130889818F5F898389818430AE
:1022900038F22A960FB6F894DEBF0FBECDBFCF91AD
:1022A000DF910895DF93CF93CDB7DEB72F970FB6A9
:1022B000F894DEBF0FBECDBF9E878D871B828D85B4
:1022C0009E85009719F48B818F877BC081E08C837A
:1022D0001A8219821D821E821F82188684E08987D5
:1022E00085E08A8786E08B8787E08C871A8263C0C7
:1022F0008A810E94F710198257C08981282F30E007
:10230000CE010596FC01E20FF31F40818981282F41
:1023100030E0CE010996FC01E20FF31F90819E018F
:102320002C5F3F4F842F692FA9010E940F098C81D8
:102330008823B9F58A81882F90E09C01220F331FF2
:10234000220F331F8981882F90E0820F931FFC0199
:10235000E155FF4F8081ED85FE8580831AC089811C
:10236000282F30E0CE010596FC01E20FF31F4081DB
:102370008981282F30E0CE010996FC01E20FF31F7E
:1023800090819E012C5F3F4F842F692FA9010E94ED
:102390000F098C81882319F381E08B838B818F87D0
:1023A00010C089818F5F89838981843008F4A5CF2B
:1023B0008A818F5F8A838A81843008F499CF8B81E8
:1023C0008F878F852F960FB6F894DEBF0FBECDBFD7
:1023D000CF91DF910895DF93CF9300D0CDB7DEB7D3
:1023E00080E895E20E94A3050E94230B0E949A10A8
:1023F00083E50E94070686EC90E00E9454068091D7
:10240000C600282F30E03A83298389819A81873555
:10241000910509F43FC029813A812835310564F4DA
:1024200089819A818E34910531F129813A81223551
:10243000310509F43EC04DC089819A8188359105E6
:1024400009F442C029813A812935310509F041C09A
:1024500081E00E94C30E80E060E00E94F00F80E601
:1024600090E00E94DF0E80E062E00E94F00F8CE4BA
:102470000E947D122EC081E790E00E94DF0E80E076
:1024800062E00E94F00F83E40E947D1281E00E94CE
:10249000C30E1FC081E00E94C30E84E890E00E943A
:1024A000DF0E80E062E00E94F00F8CE40E947D125B
:1024B00010C081E00E94C30E80E060E00E94F00F37
:1024C00081E08093C70005C01092C70089E5809322
:1024D000C6008091C700882309F48DCF81E00E9457
:1024E000C30E87E990E00E94DF0E80E062E00E9468
:1024F000F00F82E50E947D127ECFDF93CF9300D054
:1025000000D000D0CDB7DEB78C831A821B8219822F
:10251000CE0103960E9452118A838A81882309F092
:102520006CC08B81882309F468C08B818B3409F4DB
:1025300047C08C81282F30E03E832D838D819E8182
:102540008C34910559F02D813E8122353105C9F039
:102550008D819E818334910509F04FC0898185303A
:1025600008F04BC08B810E94A90E8981882F90E0D2
:102570002B81FC01EF53FF4F208389818F5F89837B
:102580003CC089818823C9F58B81873321F488E594
:102590000E9407063AC08B81813319F08B8180330A
:1025A00061F58B810E94A90E8981882F90E02B8193
:1025B000FC01EF53FF4F208389818F5F89831DC00A
:1025C0008981882F90E0FC01EF53FF4F10828C81AE
:1025D0000E94070681EC90E00E94260681EC90E0C4
:1025E00060E070E045E050E00E94821319820DC067
:1025F000CE0103960E9452118A838A81882309F0B2
:1026000087CF8B818823A1F783CF26960FB6F894C6
:10261000DEBF0FBECDBFCF91DF910895A1E21A2E8C
:10262000AA1BBB1BFD010DC0AA1FBB1FEE1FFF1F76
:10263000A217B307E407F50720F0A21BB30BE40BC6
:10264000F50B661F771F881F991F1A9469F760950D
:102650007095809590959B01AC01BD01CF010895C7
:1026600097FB092E05260ED057FD04D0D7DF0AD0E0
:10267000001C38F450954095309521953F4F4F4FB1
:102680005F4F0895F6F790958095709561957F4F0F
:102690008F4F9F4F08952F923F924F925F926F926C
:1026A0007F928F929F92AF92BF92CF92DF92EF92E2
:1026B000FF920F931F93CF93DF93CDB7DEB7CA1B63
:1026C000DB0B0FB6F894DEBF0FBECDBF09942A888E
:1026D000398848885F846E847D848C849B84AA8436
:1026E000B984C884DF80EE80FD800C811B81AA81C3
:1026F000B981CE0FD11D0FB6F894DEBF0FBECDBF8E
:10270000ED010895DC0101C06D9341505040E0F7A8
:062710000895F894FFCFCC
:10271600456E7465722050617373776F72643A20E8
:1027260000536574204E65772050617373776F721E
:10273600643A200057726F6E6720656E746572206A
:10274600506173733A20004F4E3A2031207C204F5F
:1027560046463A2030200000000000000000003706
:1027660038392F343536583132332D4B303D2B0026
:00000001FF
